{
  "_format": "hh-sol-artifact-1",
  "contractName": "Curve",
  "sourceName": "contracts/Curve.sol",
  "abi": [
    {
      "inputs": [
        {
          "internalType": "address[]",
          "name": "_tokens",
          "type": "address[]"
        },
        {
          "internalType": "address[]",
          "name": "_pools",
          "type": "address[]"
        }
      ],
      "stateMutability": "nonpayable",
      "type": "constructor"
    },
    {
      "anonymous": false,
      "inputs": [
        {
          "indexed": true,
          "internalType": "address",
          "name": "previousOwner",
          "type": "address"
        },
        {
          "indexed": true,
          "internalType": "address",
          "name": "newOwner",
          "type": "address"
        }
      ],
      "name": "OwnershipTransferred",
      "type": "event"
    },
    {
      "inputs": [
        {
          "internalType": "address",
          "name": "pool",
          "type": "address"
        },
        {
          "internalType": "address[]",
          "name": "_tokens",
          "type": "address[]"
        },
        {
          "internalType": "uint256[]",
          "name": "_amounts",
          "type": "uint256[]"
        },
        {
          "internalType": "uint256",
          "name": "_minMintAmount",
          "type": "uint256"
        }
      ],
      "name": "addLiquidity",
      "outputs": [],
      "stateMutability": "payable",
      "type": "function"
    },
    {
      "inputs": [
        {
          "internalType": "address",
          "name": "pool",
          "type": "address"
        },
        {
          "internalType": "int128",
          "name": "i",
          "type": "int128"
        },
        {
          "internalType": "int128",
          "name": "j",
          "type": "int128"
        },
        {
          "internalType": "uint256",
          "name": "dx",
          "type": "uint256"
        },
        {
          "internalType": "uint256",
          "name": "minDy",
          "type": "uint256"
        }
      ],
      "name": "exchange",
      "outputs": [],
      "stateMutability": "payable",
      "type": "function"
    },
    {
      "inputs": [],
      "name": "owner",
      "outputs": [
        {
          "internalType": "address",
          "name": "",
          "type": "address"
        }
      ],
      "stateMutability": "view",
      "type": "function"
    },
    {
      "inputs": [
        {
          "internalType": "address",
          "name": "pool",
          "type": "address"
        },
        {
          "internalType": "uint256",
          "name": "liquidity",
          "type": "uint256"
        },
        {
          "internalType": "uint256[]",
          "name": "minAmounts",
          "type": "uint256[]"
        }
      ],
      "name": "removeLiquidity",
      "outputs": [],
      "stateMutability": "payable",
      "type": "function"
    },
    {
      "inputs": [],
      "name": "renounceOwnership",
      "outputs": [],
      "stateMutability": "nonpayable",
      "type": "function"
    },
    {
      "inputs": [
        {
          "internalType": "address",
          "name": "newOwner",
          "type": "address"
        }
      ],
      "name": "transferOwnership",
      "outputs": [],
      "stateMutability": "nonpayable",
      "type": "function"
    },
    {
      "inputs": [],
      "name": "withdrawAdmin",
      "outputs": [],
      "stateMutability": "nonpayable",
      "type": "function"
    }
  ],
  "bytecode": "0x60806040523480156200001157600080fd5b506040516200121138038062001211833981810160405260408110156200003757600080fd5b81019080805160405193929190846401000000008211156200005857600080fd5b9083019060208201858111156200006e57600080fd5b82518660208202830111640100000000821117156200008c57600080fd5b82525081516020918201928201910280838360005b83811015620000bb578181015183820152602001620000a1565b5050505090500160405260200180516040519392919084640100000000821115620000e557600080fd5b908301906020820185811115620000fb57600080fd5b82518660208202830111640100000000821117156200011957600080fd5b82525081516020918201928201910280838360005b83811015620001485781810151838201526020016200012e565b50505050905001604052505050600062000167620002c560201b60201c565b600080546001600160a01b0319166001600160a01b0383169081178255604051929350917f8be0079c531659141344cd1fd0a4f28419497f9722a3daafe3b4186f6b6457e0908290a3508151620001c6906001906020850190620002c9565b5060005b60015460ff82161015620002bc5760005b82518160ff161015620002b25760018260ff1681548110620001f957fe5b60009182526020909120015483516001600160a01b039091169063095ea7b390859060ff85169081106200022957fe5b60200260200101516000196040518363ffffffff1660e01b815260040180836001600160a01b0316815260200182815260200192505050602060405180830381600087803b1580156200027b57600080fd5b505af115801562000290573d6000803e3d6000fd5b505050506040513d6020811015620002a757600080fd5b5050600101620001db565b50600101620001ca565b5050506200034a565b3390565b82805482825590600052602060002090810192821562000321579160200282015b828111156200032157825182546001600160a01b0319166001600160a01b03909116178255602090920191600190910190620002ea565b506200032f92915062000333565b5090565b5b808211156200032f576000815560010162000334565b610eb7806200035a6000396000f3fe6080604052600436106100705760003560e01c80638da5cb5b1161004e5780638da5cb5b146100f4578063c83abb8514610132578063c8d35f22146101f7578063f2fde38b1461033d57610070565b806304c76af0146100755780632d9bedf81461008c578063715018a6146100df575b600080fd5b34801561008157600080fd5b5061008a61037d565b005b61008a600480360360a08110156100a257600080fd5b5073ffffffffffffffffffffffffffffffffffffffff813516906020810135600f90810b91604081013590910b9060608101359060800135610482565b3480156100eb57600080fd5b5061008a610791565b34801561010057600080fd5b506101096108a8565b6040805173ffffffffffffffffffffffffffffffffffffffff9092168252519081900360200190f35b61008a6004803603606081101561014857600080fd5b73ffffffffffffffffffffffffffffffffffffffff8235169160208101359181019060608101604082013564010000000081111561018557600080fd5b82018360208201111561019757600080fd5b803590602001918460208302840111640100000000831117156101b957600080fd5b9190808060200260200160405190810160405280939291908181526020018383602002808284376000920191909152509295506108c4945050505050565b61008a6004803603608081101561020d57600080fd5b73ffffffffffffffffffffffffffffffffffffffff823516919081019060408101602082013564010000000081111561024557600080fd5b82018360208201111561025757600080fd5b8035906020019184602083028401116401000000008311171561027957600080fd5b91908080602002602001604051908101604052809392919081815260200183836020028082843760009201919091525092959493602081019350359150506401000000008111156102c957600080fd5b8201836020820111156102db57600080fd5b803590602001918460208302840111640100000000831117156102fd57600080fd5b9190808060200260200160405190810160405280939291908181526020018383602002808284376000920191909152509295505091359250610993915050565b34801561034957600080fd5b5061008a6004803603602081101561036057600080fd5b503573ffffffffffffffffffffffffffffffffffffffff16610cdf565b610385610e80565b73ffffffffffffffffffffffffffffffffffffffff166103a36108a8565b73ffffffffffffffffffffffffffffffffffffffff161461042557604080517f08c379a000000000000000000000000000000000000000000000000000000000815260206004820181905260248201527f4f776e61626c653a2063616c6c6572206973206e6f7420746865206f776e6572604482015290519081900360640190fd5b6000471161043257600080fd5b61043a6108a8565b73ffffffffffffffffffffffffffffffffffffffff166108fc479081150290604051600060405180830381858888f1935050505015801561047f573d6000803e3d6000fd5b50565b600184600f0b8154811061049257fe5b6000918252602080832090910154604080517f23b872dd00000000000000000000000000000000000000000000000000000000815233600482015230602482015260448101879052905173ffffffffffffffffffffffffffffffffffffffff909216936323b872dd9360648084019491939192918390030190829087803b15801561051c57600080fd5b505af1158015610530573d6000803e3d6000fd5b505050506040513d602081101561054657600080fd5b505060018054600f86900b90811061055a57fe5b6000918252602080832090910154604080517f095ea7b300000000000000000000000000000000000000000000000000000000815273ffffffffffffffffffffffffffffffffffffffff8a81166004830152602482018890529151919092169363095ea7b393604480850194919392918390030190829087803b1580156105e057600080fd5b505af11580156105f4573d6000803e3d6000fd5b505050506040513d602081101561060a57600080fd5b5050604080517f3df02124000000000000000000000000000000000000000000000000000000008152600f86810b600483015285900b60248201526044810184905260648101839052905160009173ffffffffffffffffffffffffffffffffffffffff881691633df021249160848082019260209290919082900301818787803b15801561069757600080fd5b505af11580156106ab573d6000803e3d6000fd5b505050506040513d60208110156106c157600080fd5b50516001805491925090600f86900b9081106106d957fe5b6000918252602080832090910154604080517fa9059cbb00000000000000000000000000000000000000000000000000000000815233600482015260248101869052905173ffffffffffffffffffffffffffffffffffffffff9092169363a9059cbb9360448084019491939192918390030190829087803b15801561075d57600080fd5b505af1158015610771573d6000803e3d6000fd5b505050506040513d602081101561078757600080fd5b5050505050505050565b610799610e80565b73ffffffffffffffffffffffffffffffffffffffff166107b76108a8565b73ffffffffffffffffffffffffffffffffffffffff161461083957604080517f08c379a000000000000000000000000000000000000000000000000000000000815260206004820181905260248201527f4f776e61626c653a2063616c6c6572206973206e6f7420746865206f776e6572604482015290519081900360640190fd5b6000805460405173ffffffffffffffffffffffffffffffffffffffff909116907f8be0079c531659141344cd1fd0a4f28419497f9722a3daafe3b4186f6b6457e0908390a3600080547fffffffffffffffffffffffff0000000000000000000000000000000000000000169055565b60005473ffffffffffffffffffffffffffffffffffffffff1690565b604080517fd40ddb8c000000000000000000000000000000000000000000000000000000008152600481018481526024820192835283516044830152835173ffffffffffffffffffffffffffffffffffffffff87169363d40ddb8c9387938793909291606401906020808601910280838360005b83811015610950578181015183820152602001610938565b505050509050019350505050600060405180830381600087803b15801561097657600080fd5b505af115801561098a573d6000803e3d6000fd5b50505050505050565b60005b83518160ff161015610b3257828160ff16815181106109b157fe5b6020026020010151600014156109c657610b2a565b6000805b60015460ff82161015610a4e5760018160ff16815481106109e757fe5b600091825260209091200154865173ffffffffffffffffffffffffffffffffffffffff90911690879060ff8616908110610a1d57fe5b602002602001015173ffffffffffffffffffffffffffffffffffffffff161415610a4657600191505b6001016109ca565b5080610b2857848260ff1681518110610a6357fe5b602002602001015173ffffffffffffffffffffffffffffffffffffffff1663095ea7b3877fffffffffffffffffffffffffffffffffffffffffffffffffffffffffffffffff6040518363ffffffff1660e01b8152600401808373ffffffffffffffffffffffffffffffffffffffff16815260200182815260200192505050602060405180830381600087803b158015610afb57600080fd5b505af1158015610b0f573d6000803e3d6000fd5b505050506040513d6020811015610b2557600080fd5b50505b505b600101610996565b5060005b83518160ff161015610c3157838160ff1681518110610b5157fe5b602002602001015173ffffffffffffffffffffffffffffffffffffffff166323b872dd3330868560ff1681518110610b8557fe5b60200260200101516040518463ffffffff1660e01b8152600401808473ffffffffffffffffffffffffffffffffffffffff1681526020018373ffffffffffffffffffffffffffffffffffffffff1681526020018281526020019350505050602060405180830381600087803b158015610bfd57600080fd5b505af1158015610c11573d6000803e3d6000fd5b505050506040513d6020811015610c2757600080fd5b5050600101610b36565b508373ffffffffffffffffffffffffffffffffffffffff1663b72df5de83836040518363ffffffff1660e01b81526004018080602001838152602001828103825284818151815260200191508051906020019060200280838360005b83811015610ca5578181015183820152602001610c8d565b505050509050019350505050600060405180830381600087803b158015610ccb57600080fd5b505af1158015610787573d6000803e3d6000fd5b610ce7610e80565b73ffffffffffffffffffffffffffffffffffffffff16610d056108a8565b73ffffffffffffffffffffffffffffffffffffffff1614610d8757604080517f08c379a000000000000000000000000000000000000000000000000000000000815260206004820181905260248201527f4f776e61626c653a2063616c6c6572206973206e6f7420746865206f776e6572604482015290519081900360640190fd5b73ffffffffffffffffffffffffffffffffffffffff8116610df3576040517f08c379a0000000000000000000000000000000000000000000000000000000008152600401808060200182810382526026815260200180610e856026913960400191505060405180910390fd5b6000805460405173ffffffffffffffffffffffffffffffffffffffff808516939216917f8be0079c531659141344cd1fd0a4f28419497f9722a3daafe3b4186f6b6457e091a3600080547fffffffffffffffffffffffff00000000000000000000000000000000000000001673ffffffffffffffffffffffffffffffffffffffff92909216919091179055565b339056fe4f776e61626c653a206e6577206f776e657220697320746865207a65726f2061646472657373a164736f6c6343000706000a",
  "linkReferences": {},
  "deployedLinkReferences": {}
}